S01700004763634170706C69636174696F6E312E737265635B
S11300000C942A000C943F000C943F000C943F0085
S11300100C943F000C943F000C943F000C943F0060
S11300200C943F000C943F000C943F000C943F0050
S11300300C943F000C943F000C943F000C943F0040
S11300400C943F000C943F000C943F000C943F0030
S11300500C943F0011241FBECFE5D8E0DEBFCDBF16
S113006010E0A0E6B0E0E8E8F1E002C005900D92EF
S1130070AA36B107D9F70E946C000C94C2000C9404
S113008000002F923F929C0121C0C9016AE070E0F8
S11300900E949A0046EF4603F001479FF00D112499
S11300A0E20FF31FE20DF31D80818BBBF101E60F1C
S11300B0F71F808188BB4FE986E891E0415080407A
S11300C09040E1F700C000002150310912161306D8
S11300D0E4F23F902F900895CF93DF93CDB7DEB72E
S11300E02A970FB6F894DEBF0FBECDBF8AE0E0E6D4
S11300F0F0E0DE01119601900D928A95E1F78FEF01
S11301008ABB87BB81BB82E082BBCE0101961C0106
S11301108EE190E00E94410084E082BB85E090E0A3
S11301200E94410088E082BB8EE190E00E94410081
S113013012BAE9CF97FB072E16F4009407D077FD87
S113014009D00E94AE0007FC05D03EF4909581953D
S11301509F4F0895709561957F4F0895AA1BBB1B0F
S113016051E107C0AA1FBB1FA617B70710F0A61BB3
S1130170B70B881F991F5A95A9F780959095BC01D4
S10B0180CD010895F894FFCFAE
S10D01883F065B4F666D7D077F6F35
S9030000FC
